:100000000C9497000C94BF000C94BF000C94BF009C
:100010000C94BF000C94BF000C94BF000C94BF0064
:100020000C94BF000C94BF000C94BF000C94BF0054
:100030000C94BF000C94BF000C94BF000C94BF0044
:100040000C94A10A0C94BF000C94110B0C94EB0AB5
:100050000C94BF000C94BF000C94BF000C94BF0024
:100060000C9482090C94BF004148543130204F4B0E
:10007000004148543130206E6F7420636F6E6E659E
:1000800063746564206F72206661696C20746F20F0
:100090006C6F61642063616C6962726174696F6E18
:1000A00020636F656666696369656E7400466169A1
:1000B0006C656420746F2072656164202D20726508
:1000C0007365743A2000202B2D302E334300546585
:1000D0006D70657261747572653A200000000008E9
:1000E00000020100000304070000000000000000FF
:1000F00000000000250028002B0000000000240064
:1001000027002A0004040404040404040202020276
:1001100002020303030303030102040810204080CA
:10012000010204081020010204081020430B1124CE
:100130001FBECFEFD8E0DEBFCDBF23E0A2E6B1E027
:1001400001C01D92A032B207E1F711E0A0E0B1E0DA
:10015000E2EAF5E202C005900D92A236B107D9F7A6
:1001600010E0C7E9D0E004C02197FE010E94AF0F64
:10017000C639D107C9F70E94880B0C94CF120C9492
:1001800000008091BF019091C001891B990B0895D7
:1001900090E0FC01E85EFE4F24918C5F9E4FFC01D5
:1001A0008491882399F090E0880F991FFC01E65014
:1001B000FF4FA591B491FC01E051FF4F85919491BF
:1001C0008FB7F894EC91E22BEC938FBF08952091B8
:1001D0009601260F3327331F21323105ECF420918D
:1001E0002B02FC0190E080E0243069F082E0089569
:1001F000A09196012191AC014C585E4FA40FB52FF0
:10020000B11D2C930196861798F380919601680F83
:100210006093960180E0089581E00895089508951F
:100220000895E091C0018091BF01E81730F4F0E03B
:10023000E55FFD4F808190E008958FEF9FEF089577
:100240009091C0018091BF012FEF3FEF981748F4C4
:10025000E92FF0E0E55FFD4F208130E09F5F909354
:10026000C001C9010895CF92DF92EF92FF920F93E0
:100270001F93CF93DF937C01CB018A012091C101B1
:10028000222389F0EB016B01C40ED51ECC15DD05D0
:1002900069F06991D701ED91FC910190F081E02D19
:1002A000C7010995F3CF642F0E94E700C801DF91D1
:1002B000CF911F910F91FF90EF90DF90CF90089515
:1002C000CF93DF931F92CDB7DEB769832091C10131
:1002D0002223F9F02091E401203258F021E030E0AF
:1002E000FC013383228390E080E00F90DF91CF9177
:1002F00008958091C201E82FF0E0ED53FE4F9981FF
:1003000090838F5F8093C2018093E40181E090E04D
:10031000ECCF61E0CE0101960E94E700F7CF682F95
:1003200081E392E00C94600190E0FC01E452FF4F05
:100330002491FC01E85EFE4F3491FC01EC5FFE4F1E
:10034000E491EE23C9F0222339F0233001F1A8F41F
:10035000213019F1223029F1F0E0EE0FFF1FE051BA
:10036000FF4FA591B4918FB7F894EC91611126C01D
:1003700030953E233C938FBF08952730A9F0283055
:10038000C9F0243049F7809180008F7D03C08091AF
:1003900080008F7780938000DFCF84B58F7784BD16
:1003A000DBCF84B58F7DFBCF8091B0008F778093BA
:1003B000B000D2CF8091B0008F7DF9CF3E2BDACF45
:1003C00010922B0281E080930A021092050261E0F4
:1003D00082E10E94940161E083E10E949401E9EBD3
:1003E000F0E080818E7F808380818D7F808388E4B0
:1003F0008093B80085E48093BC000895CF93DF9389
:1004000091E0909373018823B9F0C091B800D09126
:10041000BA008091BC008A7B8093BC0060E082E1DE
:100420000E94940160E083E10E9494010E94E00137
:10043000D093BA00C093B800DF91CF9108953FB731
:10044000F89480916F0190917001A0917101B09129
:10045000720126B5A89B05C02F3F19F00196A11D7A
:10046000B11D3FBFBA2FA92F982F8827BC01CD01FE
:10047000620F711D811D911D42E0660F771F881F5D
:10048000991F4A95D1F708958F929F92AF92BF928C
:10049000CF92DF92EF92FF920F931F93CF93DF9350
:1004A000D82FC62F142F613208F09CC00E941F0263
:1004B0006B017C0180912B0281116FC081E08093E0
:1004C0002B0210930A029FEF9093090210920802E8
:1004D0009C0F909307028093060280910602DD0F25
:1004E000D82BD093060280910502813009F07CC0A0
:1004F000109205020E941F026B017C01809106028E
:100500008093BB0080912D0290912E02A0912F022A
:10051000B0913002892B8A2B8B2BA1F00E941F02F5
:1005200000912D0210912E0220912F023091300265
:100530006C197D098E099F090617170728073907C7
:1005400008F44CC08091BC0083FDD8CF85EC80932B
:10055000BC000E941F026B017C0180912B02813044
:1005600009F444C0809108028C1710F4C09108026D
:10057000E5EEF1E0ABE0B2E080E08C1359C08C2FE7
:10058000DF91CF911F910F91FF90EF90DF90CF906F
:10059000BF90AF909F908F90089580912D02909181
:1005A0002E02A0912F02B0913002892B8A2B8B2B27
:1005B00009F480CF0E941F0280902D0290902E029D
:1005C000A0902F02B09030026C197D098E099F090E
:1005D00086169706A806B90608F06CCF80912C0203
:1005E0000E94FE01C0E0CBCF85EEB1CF80912D02FD
:1005F00090912E02A0912F02B0913002892B8A2B6C
:100600008B2B09F4AACF0E941F0200912D0210919A
:100610002E0220912F02309130026C197D098E0933
:100620009F09061717072807390708F096CFD6CF76
:1006300091919D938F5FA1CF8F929F92AF92BF9226
:10064000CF92DF92EF92FF920F931F93CF93DF939E
:10065000D091E401D13208F0D7C0182FC091E30146
:100660000E941F026B017C0180912B0281116BC0E3
:1006700082E080932B0210930A028FEF809309028D
:1006800010920802D0930702A3ECB1E0E5EEF1E08E
:1006900080E0D81391C01092060280910602CC0F20
:1006A000C82BC093060280910502813009F088C0F2
:1006B000109205020E941F026B017C0180910602CC
:1006C0008093BB0080912D0290912E02A0912F0269
:1006D000B0913002892B8A2B8B2BA1F00E941F0234
:1006E00000912D0210912E0220912F0230913002A4
:1006F0006C197D098E099F09061717072807390706
:1007000008F442C08091BC0083FDD8CF85EC809373
:10071000BC000E941F026B017C0180912B02823081
:1007200009F450C0809109028F3F09F46FC0809195
:100730000902803209F46CC080910902803309F407
:1007400069C084E026C080912D0290912E02A09174
:100750002F02B0913002892B8A2B8B2B09F484CF86
:100760000E941F0280902D0290902E02A0902F02D6
:10077000B09030026C197D098E099F098616970684
:10078000A806B90608F070CF80912C020E94FE01E5
:1007900085E01092C2011092E4011092C101DF9134
:1007A000CF911F910F91FF90EF90DF90CF90BF906E
:1007B000AF909F908F9008959D9191938F5F69CF97
:1007C00085EEA5CF80912D0290912E02A0912F024F
:1007D000B0913002892B8A2B8B2B09F49ECF0E947B
:1007E0001F0200912D0210912E0220912F023091B4
:1007F00030026C197D098E099F0906171707280713
:10080000390708F08ACFC0CF81E0C3CF80E0C1CFE5
:1008100082E0BFCF83E0BDCF8F929F92AF92BF9215
:10082000CF92DF92EF92FF924B015C010E941F0278
:100830006B017C010E941F026C197D098E099F09C2
:10084000683E734081059105A8F321E0821A910862
:10085000A108B10888EEC80E83E0D81EE11CF11C87
:1008600081149104A104B10429F7FF90EF90DF9067
:10087000CF90BF90AF909F908F9008958091DA02B3
:1008800091E09093C1018093E3011092C201109214
:10089000E40188EA90E00E948F0190E080E00E94ED
:1008A0008F0190E080E00E948F0181E00E941C0394
:1008B000811108C06EE571E080E090E00E940C04B8
:1008C00081E0089580E00895AF92BF92CF92DF92C9
:1008D000EF92FF920F931F93CF93DF936C017B01F5
:1008E0008B01040F151FEB015E01AE18BF08C01786
:1008F000D10759F06991D601ED91FC910190F081F9
:10090000E02DC6010995892B79F7C501DF91CF91BB
:100910001F910F91FF90EF90DF90CF90BF90AF901D
:10092000089590E080E00895FC01538D448D252FBB
:1009300030E0842F90E0821B930B541710F0CF9679
:10094000089501970895FC01918D828D981761F0AB
:10095000A28DAE0FBF2FB11D5D968C91928D9F5FC2
:100960009F73928F90E008958FEF9FEF0895FC01A1
:10097000918D828D981731F0828DE80FF11D858D54
:1009800090E008958FEF9FEF0895FC01918D228DE7
:10099000892F90E0805C9F4F821B91098F7399276C
:1009A00008958DE392E00E94C50421E0892B09F4AB
:1009B00020E0822F089580E090E0892B29F00E94AA
:1009C000D10481110C9400000895FC01A48DA80F9E
:1009D000B92FB11DA35ABF4F2C91848D90E0019681
:1009E0008F739927848FA689B7892C93A089B189A1
:1009F0008C91837080648C93938D848D981306C042
:100A00000288F389E02D80818F7D80830895EF92A5
:100A1000FF920F931F93CF93DF93EC0181E0888FB8
:100A20009B8D8C8D98131AC0E889F989808185FF88
:100A300015C09FB7F894EE89FF896083E889F9892A
:100A400080818370806480839FBF81E090E0DF912C
:100A5000CF911F910F91FF90EF900895F62E0B8D7F
:100A600010E00F5F1F4F0F731127E02E8C8D8E113A
:100A70000CC00FB607FCFACFE889F989808185FFA1
:100A8000F5CFCE010E94E504F1CFEB8DEC0FFD2FE9
:100A9000F11DE35AFF4FF0829FB7F8940B8FEA895C
:100AA000FB8980818062CFCF0F931F93CF93DF9319
:100AB0008C01D0E0C0E0F801EC0FFD1F64916623CB
:100AC00041F08DE392E00E940705892B11F02196F9
:100AD000F2CFCE01DF91CF911F910F910895CF9367
:100AE000DF93EC01888D8823B9F0AA89BB89E88956
:100AF000F9898C9185FD03C0808186FD0DC00FB6FC
:100B000007FCF7CF8C9185FFF2CF808185FFEDCF79
:100B1000CE010E94E504E9CFDF91CF910895FC0159
:100B200001900020E9F73197AF01481B590BBC0138
:100B30008DE392E00C946404CF93DF930E945405FC
:100B4000EC018AE291E00E948F058C0F9D1FDF91DE
:100B5000CF9108958F929F92AF92BF920F931F9360
:100B6000CF93DF93CDB7DEB7A1970FB6F894DEBF72
:100B70000FBECDBF19A2423008F44AE08E010F5DCE
:100B80001F4F842E912CB12CA12CA50194010E9401
:100B90008D0FE62FB901CA01EA30F4F4E05DD80107
:100BA000EE938D01232B242B252B79F790E080E009
:100BB000109719F0CD010E948F05A1960FB6F894F9
:100BC000DEBF0FBECDBFDF91CF911F910F91BF90C0
:100BD000AF909F908F900895E95CE1CF41E061E094
:100BE0008091DA020E9444021092C0018093BF01FA
:100BF000813029F481E392E00E94200108958FEF73
:100C000008958091DA0291E09093C1018093E3010D
:100C10001092C2011092E4018091DB02823009F14E
:100C200081EE90E00E948F0188E090E00E948F01A9
:100C300090E080E00E948F0181E00E941C038111FE
:100C40000EC06EE571E080E090E00E940C040E940E
:100C5000EE058093DC028F3F11F083FD05C080E03C
:100C600008958EEB90E0DECF81E008954F925F9281
:100C70006F927F928F929F92AF92BF92CF92DF92AC
:100C8000EF92FF920F931F93CF936B017C01742E11
:100C9000AC019B010E94CF10882399F08DE291E076
:100CA000CF911F910F91FF90EF90DF90CF90BF9069
:100CB000AF909F908F907F906F905F904F900C942B
:100CC0008F0546015701E894B7F82FEF3FEF4FE744
:100CD0005FE7C501B4010E94CF1081110DC02FEF55
:100CE0003FEF4FE75FE7C501B4010E94320E1816CF
:100CF0001CF481E391E0D4CF2FEF3FEF4FE75FE4A7
:100D0000C701B6010E94CA1018161CF485E391E0D1
:100D1000C7CF2FEF3FEF4FE75FECC701B6010E944F
:100D2000320E87FDF3CF20E030E0A901C701B60104
:100D30000E94320E10E000E087FF0AC06DE28DE3F2
:100D400092E00E9407058C01F7FAF094F7F8F0940E
:100D5000C0E060E070E080E09FE37C1641F020E0BE
:100D600030E040E251E40E942210CF5FF6CFA701AD
:100D700096010E94B60F2B013C010E949B104B0173
:100D80005C014AE00E94AA057C01E00EF11ECC2322
:100D9000C1F1C501B4010E94370E9B01AC01C30132
:100DA000B2010E94B50F4B015C016EE28DE392E04F
:100DB0000E940705E80EF91EC15018F120E030E04E
:100DC00040E251E4C501B4010E94980E2B013C01A0
:100DD0000E949B104B01B12CA12C4AE0C501B4012B
:100DE0000E94AA05E80EF91EC501B4010E94370E43
:100DF0009B01AC01C301B2010E94B50F4B015C0124
:100E0000DBCFC701CF911F910F91FF90EF90DF9043
:100E1000CF90BF90AF909F908F907F906F905F909A
:100E20004F900895CF93DF9342E00E943606EC0185
:100E30008AE291E00E948F058C0F9D1FDF91CF9178
:100E40000895FC0180819181009711F00C9470113C
:100E5000089585ED8093BC0080912D0290912E0223
:100E6000A0912F02B09130020796A11DB11D23E081
:100E7000B695A795979587952A95D1F72091BC00AF
:100E800024FD03C010922B02089540912D02509131
:100E90002E0260912F0270913002452B462B472B7A
:100EA00069F30097A105B10541F02AE22A95F1F70F
:100EB00000C00197A109B109E1CF80912C020C94E7
:100EC000FE01EF92FF920F931F93CF93DF93EC01FC
:100ED0007B018A0188819981009729F02A813B81D1
:100EE0002417350788F4B8016F5F7F4F0E94F9110E
:100EF000009791F0998388831B830A832C813D811D
:100F0000232B11F4FC0110821D830C83B70188810F
:100F100099810E94C8120CC088819981009711F0B4
:100F20000E947011198218821D821C821B821A82F3
:100F3000CE01DF91CF911F910F91FF90EF90089517
:100F40002F923F924F925F926F927F928F929F92D9
:100F5000AF92BF92CF92DF92EF92FF920F931F93C7
:100F6000CF93DF93CDB7DEB763970FB6F894DEBFAC
:100F70000FBECDBFE091FF02EE2309F4BFC13B8B52
:100F80002A8B598B488B6C877D878E879F878FB77D
:100F9000F8942091BB013091BC014091BD0150916A
:100FA000BE01288739874A875B878FBF8091E2021D
:100FB0009091E302A091E402B091E502281B390B65
:100FC0004A0B5B0BCA01B9010E94370E4B015C0151
:100FD0002C853D854E855F856091180370911903BE
:100FE00080911A0390911B030E94B50F6B017C0145
:100FF000AC019B01C501B4010E94980E2091F6023C
:101000003091F7024091F8025091F9020E94B60F18
:10101000162F072F382E292E862F902FA32DB22D75
:101020008093F6029093F702A093F802B093F9022E
:101030003091FE023F83332309F442C02DEC3CEC97
:101040004CE85FE3609110037091110380911203EB
:10105000909113030E94980E2B013C019B01AC015F
:10106000612F702F832D922D0E94320E87FD1EC09E
:101070002DEC3CEC4CE85FE3609114037091150398
:1010800080911603909117030E94980E2B013C014A
:101090009B01AC01612F702F832D922D0E94CA10ED
:1010A000181624F0412E502E632C722CC201D3014D
:1010B0008093F6029093F702A093F802B093F9029E
:1010C0002091F6023091F7024091F8025091F90216
:1010D00060910403709105038091060390910703CA
:1010E0000E94980E2B013C012091000330910103D6
:1010F0004091020350910303C701B6010E94980E6C
:101100009B01AC01C301B2010E94B60F2B013C014F
:101110002091EA023091EB024091EC025091ED02F5
:10112000C701B6010E94B50FA50194010E942210CB
:10113000209108033091090340910A0350910B0359
:101140000E94980E9B01AC01C301B2010E94B60F30
:1011500020910C0330910D0340910E0350910F0329
:101160000E942210762E872E982EA92E4F8144237E
:1011700009F4BFC060901003B090110300911203F6
:1011800010911303262D3B2DA8010E94320E87FDDE
:1011900017C060901403B0901503009116031091CE
:1011A0001703262D3B2DA801672D782D892D9A2D0B
:1011B0000E94CA10181624F0672CB82C092D1A2D7D
:1011C000862D9B2DD8018093E6029093E702A09391
:1011D000E802B093E902C092EA02D092EB02E092F8
:1011E000EC02F092ED0288859985AA85BB858093F3
:1011F000E2029093E302A093E402B093E502A8898F
:10120000B98914968D919C911597892B09F450C03A
:1012100067E471E08D919C910E94BF12892B09F0C7
:1012200047C01A8219821C821B821E821D82EA8993
:10123000FB89608171816115710531F044815581AF
:10124000CE0101960E94610742E06C857D858E8506
:101250009F850E9436068D819E81892BB9F06DE3B2
:1012600071E089819A810E94BF12892B79F489E308
:1012700091E00E948F056091E6027091E7028091F3
:10128000E8029091E90242E00E94360689E391E08B
:101290000E948F05609118037091190380911A03C1
:1012A00090911B030E941207CE0101960E94210714
:1012B0006091E6027091E7028091E8029091E90264
:1012C00063960FB6F894DEBF0FBECDBFDF91CF910E
:1012D0001F910F91FF90EF90DF90CF90BF90AF9054
:1012E0009F908F907F906F905F904F903F902F9046
:1012F0000895862F982DA92DBA2D65CF60E070E056
:10130000CB01DECF1F920F920FB60F9211242F93B5
:101310003F934F935F936F937F938F939F93AF937D
:10132000BF93EF93FF938091B900887F803609F4D3
:101330004AC0F0F5883209F4A7C018F5803109F4E5
:101340009BC0B8F4882309F4F9C0883009F494C02C
:10135000FF91EF91BF91AF919F918F917F916F918D
:101360005F914F913F912F910F900FBE0F901F9063
:101370001895883109F488C0803251F780930902AA
:1013800014C0803409F49DC040F48033B9F388332D
:10139000F9F68093090285ECB0C0803509F485C068
:1013A000883509F496C0883499F60E942907D0CF71
:1013B000883909F48CC038F5883729F050F488361C
:1013C00011F0803729F683E080932B021092BA0146
:1013D00057C0883809F47BC0803919F0803809F08B
:1013E000B7CF8091BA01803208F071C0E091BA01A4
:1013F00081E08E0F8093BA018091BB00F0E0E65649
:10140000FE4F80833DC0803B39F0E0F4803A09F420
:1014100079C0883A09F09CCF84E080932B02109227
:10142000970110929601E0919401F0919501099530
:101430008091960181110FC081E0809396011092F6
:10144000740109C0803C09F4A6CF883C09F4A3CFFD
:10145000883B09F07DCFE091970181E08E0F80936A
:101460009701F0E0EC58FE4F80818093BB00909193
:1014700097018091960129C0809106028093BB005C
:1014800085EC8093BC0064CF9091080280910702A4
:10149000981758F5E091080281E08E0F80930802BA
:1014A000F0E0EB51FE4F8081E9CFE091080281E04E
:1014B0008E0F809308028091BB00F0E0EB51FE4F4D
:1014C000808390910802809107029817C8F285E8FE
:1014D000D8CFE091080281E08E0F809308028091BE
:1014E000BB00F0E0EB51FE4F808380910A02811136
:1014F0005CCF81E08093050284EA8093BC00109267
:101500002B0226CF85EC8093BC0010922B02809199
:10151000BA01803230F4E091BA01F0E0E656FE4FB5
:1015200010826091BA0170E0E0919801F091990108
:101530008AE991E009951092BA010ACF1092090246
:1015400034CF1F920F920FB60F9211242F933F9317
:101550008F939F93AF93BF938091BB019091BC01F8
:10156000A091BD01B091BE0130916E0123E0230F27
:101570002D3758F50196A11DB11D20936E01809362
:10158000BB019093BC01A093BD01B093BE018091BB
:101590006F0190917001A0917101B091720101965B
:1015A000A11DB11D80936F0190937001A0937101F3
:1015B000B0937201BF91AF919F918F913F912F9105
:1015C0000F900FBE0F901F90189526E8230F0296DC
:1015D000A11DB11DD2CF1F920F920FB60F921124F1
:1015E0002F933F934F935F936F937F938F939F932B
:1015F000AF93BF93EF93FF938DE392E00E94E504D6
:10160000FF91EF91BF91AF919F918F917F916F91DA
:101610005F914F913F912F910F900FBE0F901F90B0
:1016200018951F920F920FB60F9211242F938F933C
:101630009F93EF93FF93E0914D02F0914E028081D2
:10164000E0915302F091540282FD1BC09081809181
:1016500056028F5F8F7320915702821741F0E091FD
:101660005602F0E0E35CFD4F958F80935602FF91A8
:10167000EF919F918F912F910F900FBE0F901F9020
:1016800018958081F4CFE1E3F2E01382128288EEB4
:1016900093E0A0E0B0E084839583A683B7832AE03B
:1016A00031E031832083EDE3F2E013821282848300
:1016B0009583A683B7838CE191E09183808385EC49
:1016C00090E09587848784EC90E09787868780EC0C
:1016D00090E0918B808B81EC90E0938B828B82ECFD
:1016E00090E0958B848B86EC90E0978B868B118EA7
:1016F000128E138E148EEAEDF2E08FEF8283138246
:10170000148215821682178288E3808311820895DD
:10171000CF93DF93CDB7DEB72C970FB6F894DEBF2B
:101720000FBECDBF789484B5826084BD84B58160DE
:1017300084BD85B5826085BD85B5816085BD80919C
:101740006E00816080936E00109281008091810014
:10175000826080938100809181008160809381000C
:10176000809180008160809380008091B1008460CE
:101770008093B1008091B00081608093B00080912F
:101780007A00846080937A0080917A0082608093EE
:101790007A0080917A00816080937A0080917A004B
:1017A000806880937A001092C100E0914D02F09120
:1017B0004E0282E08083E0914902F0914A02108259
:1017C000E0914B02F0914C0280E18083109255022F
:1017D000E0915102F091520286E08083E0914F0245
:1017E000F0915002808180618083E0914F02F091FE
:1017F0005002808188608083E0914F02F091500216
:10180000808180688083E0914F02F0915002808156
:101810008F7D80838AE291E00E948F058EE00E9496
:10182000C8008FE00E94C80061E08EE00E94940131
:1018300040E050E066E172E440936201509363013E
:10184000609364017093650180E090E0A0E2B1E4F0
:1018500080930C0390930D03A0930E03B0930F039A
:1018600081E08093FF024093180350931903609323
:101870001A0370931B03109200031092010310923D
:1018800002031092030310920403109205031092B6
:101890000603109207031092080310920903109296
:1018A0000A0310920B03109210031092110310926E
:1018B00012031092130340E050E06FE773E440938B
:1018C00014035093150360931603709317038093CA
:1018D000FE020EE011E07FE0E72E71E0F72EE8E473
:1018E000DE2E1092C0011092BF011092C201109220
:1018F000E4010E94E0011093950100939401F0929D
:101900009901E0929801D092B80068E270E080E01E
:1019100090E00E940C040E943E040E940106811186
:101920000BC081E790E00E949C0568E873E180E0CD
:1019300090E00E940C04D5CF88E690E00E949C05C0
:10194000BB24B39452EEE52E52E0F52E6BEEC62E7C
:1019500060E0D62E00E010E0AA24AA948091DA027A
:10196000B092C1018093E3011092C2011092E40190
:101970008CEA90E00E948F0183E390E00E948F0147
:1019800090E080E00E948F0181E00E941C038111A1
:1019900022C00E94EE058093DC028F3FE1F083FFBE
:1019A0001AC087FF06C060E570E080E090E00E940A
:1019B0000C0441E066E08091DA020E944402109239
:1019C000C0018093BF014CED842E42E0942E8630FE
:1019D00079F1A092DC028DEA90E00E94540580919A
:1019E000DA02B092C1018093E3011092C201109219
:1019F000E4018AEB90E00E948F0181E00E941C03C9
:101A000081112EC164E170E080E090E00E940C043E
:101A10000E943E040E940106682F70E090E080E082
:101A20004AE00E94AA058AE291E00E948F05BEC0AA
:101A300081E392E00E942001F40181934F01EE16B0
:101A4000FF06B1F78091DC028F3F39F4412C512C15
:101A50008FE7682E83E4782E2AC06091DF0270E061
:101A600090E080E0CB0177276627662777278F7085
:101A700099274090E002512C542C4424712C612C65
:101A800064297529862997292091E102622B0E94F9
:101A9000370E2CE237E448E459E30E94980E20E028
:101AA00030E048E452E40E94B50F2B013C01409223
:101AB0006A0150926B0160926C0170926D018EEC24
:101AC00090E00E94540542E0C301B2010E94360634
:101AD00086EC90E00E949C051A8219821C821B826F
:101AE0001E821D8249E050E06BE371E0CE01019659
:101AF0000E94610718861F821A8619861C861B861B
:101B000047E050E065E471E0CE0107960E9461076E
:101B100060916A0170916B0180916C0190916D01EF
:101B20009E012F5F3F4FAE01495F5F4F0E94A007AC
:101B30002B013C014092660150926701609268015E
:101B400070926901CE0107960E942107CE0101968D
:101B50000E942107C301B2010E9494102B014B0186
:101B60008FE00E94C8004114510491F560E08FE0BD
:101B70000E9494018DE491E00E948F0560916201C2
:101B80007091630180916401909165010E94120738
:101B900088E591E00E948F05609166017091670170
:101BA00080916801909169010E94120760E177E2DB
:101BB00080E090E00E940C040115110509F4CECEDE
:101BC0000E94D104882309F4C9CE0E940000C6CE29
:101BD000FFEF4F16510411F461E0C9CFF601849173
:101BE000833021F148F48130B9F08230D1F0F0E84F
:101BF0008F1691048CF7BACF873011F1883041F1FC
:101C00008430A9F780918000806280938000509298
:101C10008B0040928A00AECF84B5806884BD47BCFB
:101C2000A9CF84B5806284BD48BCA4CF80918000D8
:101C300080688093800050928900409288009ACFFB
:101C40008091B00080688093B0004092B30092CF42
:101C50008091B00080628093B0004092B4008ACF3F
:101C600080E0DACE0E94740E08F481E00895E894D2
:101C700009C097FB3EF490958095709561957F4FD4
:101C80008F4F9F4F9923A9F0F92F96E9BB27939582
:101C9000F695879577956795B795F111F8CFFAF492
:101CA000BB0F11F460FF1BC06F5F7F4F8F4F9F4FC3
:101CB00016C0882311F096E911C0772321F09EE821
:101CC000872F762F05C0662371F096E8862F70E087
:101CD00060E02AF09A95660F771F881FDAF7880F61
:101CE0009695879597F90895990F0008550FAA0BB7
:101CF000E0E8FEEF16161706E807F907C0F012161F
:101D00001306E407F50798F0621B730B840B950B21
:101D100039F40A2661F0232B242B252B21F4089576
:101D20000A2609F4A140A6958FEF811D811D089513
:101D30000E94AB0E0C941C0F0E940E0F38F00E94F4
:101D4000150F20F0952311F00C94050F0C940B0F38
:101D500011240C94500F0E942D0F70F3959FC1F326
:101D6000950F50E0551F629FF001729FBB27F00D49
:101D7000B11D639FAA27F00DB11DAA1F649F66279E
:101D8000B00DA11D661F829F2227B00DA11D621FED
:101D9000739FB00DA11D621F839FA00D611D221FA7
:101DA000749F3327A00D611D231F849F600D211D8B
:101DB000822F762F6A2F11249F5750409AF0F1F00E
:101DC00088234AF0EE0FFF1FBB1F661F771F881F77
:101DD00091505040A9F79E3F510580F00C94050F9B
:101DE0000C94500F5F3FE4F3983ED4F386957795BB
:101DF0006795B795F795E7959F5FC1F7FE2B880F1D
:101E0000911D9695879597F9089597F99F6780E8B2
:101E100070E060E008959FEF80EC089500240A943C
:101E20001616170618060906089500240A941216B5
:101E30001306140605060895092E0394000C11F4E8
:101E4000882352F0BB0F40F4BF2B11F460FF04C095
:101E50006F5F7F4F8F4F9F4F089557FD9058440FEE
:101E6000551F59F05F3F71F04795880F97FB991FF9
:101E700061F09F3F79F087950895121613061406B6
:101E8000551FF2CF4695F1DF08C016161706180643
:101E9000991FF1CF86957105610508940895E8941E
:101EA000BB2766277727CB0197F908952F923F929A
:101EB0004F925F926F927F928F929F92AF92BF925A
:101EC000CF92DF92EF92FF920F931F93CF93DF9306
:101ED000CDB7DEB7CA1BDB0B0FB6F894DEBF0FBE63
:101EE000CDBF09942A88398848885F846E847D84B0
:101EF0008C849B84AA84B984C884DF80EE80FD80B2
:101F00000C811B81AA81B981CE0FD11D0FB6F89427
:101F1000DEBF0FBECDBFED010895A1E21A2EAA1BB0
:101F2000BB1BFD010DC0AA1FBB1FEE1FFF1FA21789
:101F3000B307E407F50720F0A21BB30BE40BF50B86
:101F4000661F771F881F991F1A9469F7609570950F
:101F5000809590959B01AC01BD01CF010895EE0FD6
:101F6000FF1F0590F491E02D09945058BB27AA2734
:101F70000E94CD0F0C941C0F0E940E0F38F00E948F
:101F8000150F20F039F49F3F19F426F40C940B0F31
:101F90000EF4E095E7FB0C94050FE92F0E942D0F3E
:101FA00058F3BA17620773078407950720F079F48E
:101FB000A6F50C944F0F0EF4E0950B2EBA2FA02D22
:101FC0000B01B90190010C01CA01A0011124FF27E6
:101FD000591B99F0593F50F4503E68F11A16F040E1
:101FE000A22F232F342F4427585FF3CF46953795E0
:101FF0002795A795F0405395C9F77EF41F16BA0BA5
:10200000620B730B840BBAF09150A1F0FF0FBB1F52
:10201000661F771F881FC2F70EC0BA0F621F731F9B
:10202000841F48F4879577956795B795F7959E3FF8
:1020300008F0B0CF9395880F08F09927EE0F979589
:10204000879508950E9436100C941C0F0E94150F5E
:1020500058F00E940E0F40F029F45F3F29F00C94D5
:10206000050F51110C94500F0C940B0F0E942D0F63
:1020700068F39923B1F3552391F3951B550BBB27B7
:10208000AA2762177307840738F09F5F5F4F220FFC
:10209000331F441FAA1FA9F335D00E2E3AF0E0E8F3
:1020A00032D091505040E695001CCAF72BD0FE2F3D
:1020B00029D0660F771F881FBB1F261737074807D1
:1020C000AB07B0E809F0BB0B802DBF01FF27935889
:1020D0005F4F3AF09E3F510578F00C94050F0C9439
:1020E000500F5F3FE4F3983ED4F38695779567955C
:1020F000B795F7959F5FC9F7880F911D96958795BE
:1021000097F90895E1E0660F771F881FBB1F6217DC
:1021100073078407BA0720F0621B730B840BBA0B9A
:10212000EE1F88F7E09508950E949B106894B11106
:102130000C94500F08950E94350F88F09F5798F027
:10214000B92F9927B751B0F0E1F0660F771F881FBC
:10215000991F1AF0BA95C9F714C0B13091F00E94D6
:102160004F0FB1E008950C944F0F672F782F8827F9
:10217000B85F39F0B93FCCF3869577956795B395FD
:10218000D9F73EF490958095709561957F4F8F4F6C
:102190009F4F08950E94740E08F48FEF08950E94D7
:1021A000740E880B990B08950F931F93CF93DF93B1
:1021B0008230910510F482E090E0E0911E03F091EE
:1021C0001F0330E020E0B0E0A0E0309799F4211543
:1021D000310509F44AC0281B390B24303105D8F5E4
:1021E0008A819B816115710589F1FB01938382834B
:1021F000FE0111C0408151810281138148175907A6
:10220000E0F04817590799F4109761F012960C9373
:10221000129713961C933296CF01DF91CF911F91A5
:102220000F91089500931E0310931F03F4CF2115FF
:10223000310551F04217530738F0A901DB019A012B
:10224000BD01DF01F801C1CFEF01F9CF90931F036A
:1022500080931E03CDCFFE01E20FF31F8193919374
:102260002250310939832883D7CF20911C03309124
:102270001D03232B41F4209102013091030130937F
:102280001D0320931C0320910001309101012115B1
:10229000310541F42DB73EB740910401509105013D
:1022A000241B350BE0911C03F0911D03E217F3078B
:1022B000A0F42E1B3F0B2817390778F0AC014E5FB6
:1022C0005F4F2417350748F04E0F5F1F50931D03D3
:1022D00040931C03819391939FCFF0E0E0E09CCF6B
:1022E000CF93DF930097E9F0FC01329713821282BB
:1022F000A0911E03B0911F03ED0130E020E0109784
:10230000A1F420813181820F931F20911C03309111
:102310001D032817390709F061C0F0931D03E093EE
:102320001C03DF91CF910895EA01CE17DF07E8F58E
:102330004A815B819E0141155105B1F7E901FB839B
:10234000EA8349915991C40FD51FEC17FD0761F439
:10235000808191810296840F951FE901998388837A
:10236000828193819B838A83F0E0E0E012968D91D5
:102370009C9113970097B9F52D913C911197CD0140
:102380000296820F931F20911C0330911D03281782
:10239000390739F6309751F510921F0310921E033A
:1023A000B0931D03A0931C03BCCFD383C283408191
:1023B0005181840F951FC817D90761F44E5F5F4F95
:1023C00088819981480F591F518340838A819B815D
:1023D000938382832115310509F0B0CFF0931F0359
:1023E000E0931E039ECFFD01DC01C0CF1382128259
:1023F000D7CFB0E0A0E0EFEFF1E10C94580F8C01E3
:10240000009751F4CB010E94D4108C01C801CDB7C4
:10241000DEB7E0E10C94740FFC01E60FF71F9C019E
:1024200022503109E217F30708F49DC0D901CD917C
:10243000DC911197C617D70798F0C530D10530F356
:10244000CE0104978617970708F3C61BD70B229770
:10245000C193D1936D937C93CF010E947011D6CF1D
:102460005B01AC1ABD0A4C018C0E9D1EA0911E038F
:10247000B0911F03512C412CF12CE12C109731F518
:1024800080911C0390911D038815990509F05CC08B
:102490004616570608F058C080910001909101013E
:1024A000009741F48DB79EB740910401509105010A
:1024B000841B950BE817F90708F055C0F0931D032E
:1024C000E0931C03F90171836083A0CF8D919C91EF
:1024D000119712966C90129713967C901397A815EB
:1024E000B90559F56C0142E0C40ED11CCA14DB04D5
:1024F00020F1AC014A195B09DA011296159780F0B8
:102500006282738251834083D9016D937C93E1147D
:10251000F10471F0D7011396FC93EE93129776CFE6
:1025200022968C0F9D1FF90191838083F301EFCFD9
:10253000F0931F03E0931E0369CF4816590608F471
:102540002C017D01D3019ACFCB010E94D4107C01D4
:10255000009749F0AE01B8010E94B612C8010E946E
:102560007011870153CF10E000E050CFFB01DC0178
:1025700002C001900D9241505040D8F70895FB01E0
:10258000DC018D91019080190110D9F3990B089508
:10259000FB01DC0101900D920020E1F70895F89411
:0225A000FFCF6B
:1025A200000020038000000000006001330191045C
:1025B2001001C100200111010000000007056404A0
:1025C20094046F05C504A304B7040D0A006E616E7E
:1025D20000696E66006F7666002C006E6F7665721B
:1025E200626F7365006E6F67726170680053657425
:1025F200706F696E743A20004F75747075743A206A
:022602000000D6
:00000001FF
